:020000040000fa
:04005c001e0600007c
:020000040000fa
:04007c001e0600005c
:020000040000fa
:04000c001e060000cc
:020000040000fa
:0400b4001e06000024
:020000040000fa
:0400b0001e06000028
:020000040000fa
:040140001e06000097
:020000040000fa
:040108001e060000cf
:020000040000fa
:040104001e060000d3
:020000040000fa
:040144001e06000093
:020000040000fa
:040070001e06000068
:020000040000fa
:040134001e060000a3
:020000040000fa
:040114001e060000c3
:020000040000fa
:040118001e060000bf
:020000040000fa
:040038001e060000a0
:020000040000fa
:040208001e060000ce
:020000040000fa
:04020c001e060000ca
:020000040000fa
:040230001e060000a6
:020000040000fa
:040234001e060000a2
:020000040000fa
:040238001e0600009e
:020000040000fa
:040060001e06000078
:020000040000fa
:040088001e06000050
:020000040000fa
:0400b8001e06000020
:020000040000fa
:0400e0001e060000f8
:020000040000fa
:04011c001e060000bb
:020000040000fa
:040138001e0600009f
:020000040000fa
:04013c001e0600009b
:020000040000fa
:040200001e060000d6
:020000040000fa
:040204001e060000d2
:020000040000fa
:04001c001e060000bc
:020000040000fa
:040010001e060000c8
:020000040000fa
:04021c001e060000ba
:020000040000fa
:040224001e060000b2
:020000040000fa
:04022c001e060000aa
:020000040000fa
:040244001e06000092
:020000040000fa
:04024c001e0600008a
:020000040000fa
:040254001e06000082
:020000040000fa
:04025c001e0600007a
:020000040000fa
:04002c001e060000ac
:020000040000fa
:04003c001e0600009c
:020000040000fa
:0400bc001e0600001c
:020000040000fa
:0400c0001e06000018
:020000040000fa
:0400c4001e06000014
:020000040000fa
:0400c8001e06000010
:020000040000fa
:040080001e06000058
:020000040000fa
:040084001e06000054
:020000040000fa
:04019c001e0600003b
:020000040000fa
:040260001e06000076
:020000040000fa
:040028001e060000b0
:020000040000fa
:040078001e06000060
:020000040000fa
:04009c001e0600003c
:020000040000fa
:0400fc001e060000dc
:020000040000fa
:040100001e060000d7
:020000040000fa
:0401b8001e0600001f
:020000040000fa
:0401bc001e0600001b
:020000040000fa
:0401c0001e06000017
:020000040000fa
:0401c4001e06000013
:020000040000fa
:0401c8001e0600000f
:020000040000fa
:0401cc001e0600000b
:020000040000fa
:0401d0001e06000007
:020000040000fa
:0401d4001e06000003
:020000040000fa
:0401d8001e060000ff
:020000040000fa
:0401dc001e060000fb
:020000040000fa
:0401e0001e060000f7
:020000040000fa
:0401e4001e060000f3
:020000040000fa
:0401e8001e060000ef
:020000040000fa
:0401ec001e060000eb
:020000040000fa
:0401f0001e060000e7
:020000040000fa
:0401f4001e060000e3
:020000040000fa
:0401f8001e060000df
:020000040000fa
:0401fc001e060000db
:020000040000fa
:04023c001e0600009a
:020000040000fa
:040124001e060000b3
:020000040000fa
:040128001e060000af
:020000040000fa
:040148001e0600008f
:020000040000fa
:040150001e06000087
:020000040000fa
:040158001e0600007f
:020000040000fa
:04015c001e0600007b
:020000040000fa
:040160001e06000077
:020000040000fa
:040164001e06000073
:020000040000fa
:040168001e0600006f
:020000040000fa
:040178001e0600005f
:020000040000fa
:04017c001e0600005b
:020000040000fa
:040264001e06000072
:020000040000fa
:04006c001e0600006c
:020000040000fa
:0400f0001e060000e8
:020000040000fa
:040018001e060000c0
:020000040000fa
:040064001e06000074
:020000040000fa
:040218001e060000be
:020000040000fa
:040220001e060000b6
:020000040000fa
:040228001e060000ae
:020000040000fa
:040240001e06000096
:020000040000fa
:040248001e0600008e
:020000040000fa
:040250001e06000086
:020000040000fa
:040258001e0600007e
:020000040000fa
:040030001e060000a8
:020000040000fa
:040040001e06000098
:020000040000fa
:04008c001e0600004c
:020000040000fa
:040090001e06000048
:020000040000fa
:0400cc001e0600000c
:020000040000fa
:0400d0001e06000008
:020000040000fa
:0400d4001e06000004
:020000040000fa
:0400d8001e06000000
:020000040000fa
:040198001e0600003f
:020000040000fa
:040008001e060000d0
:020000040000fa
:0400dc001e060000fc
:020000040000fa
:0401a0001e06000037
:020000040000fa
:0401a4001e06000033
:020000040000fa
:0401a8001e0600002f
:020000040000fa
:0401ac001e0600002b
:020000040000fa
:0401b0001e06000027
:020000040000fa
:0401b4001e06000023
:020000040000fa
:04014c001e0600008b
:020000040000fa
:04010c001e060000cb
:020000040000fa
:040110001e060000c7
:020000040000fa
:040154001e06000083
:020000040000fa
:040120001e060000b7
:020000040000fa
:040024001e060000b4
:020000040000fa
:040068001e06000070
:020000040000fa
:0400ec001e060000ec
:020000040000fa
:04004c001e0600008c
:020000040000fa
:040050001e06000088
:020000040000fa
:0400a8001e06000030
:020000040000fa
:0400ac001e0600002c
:020000040000fa
:040190001e06000047
:020000040000fa
:040194001e06000043
:020000040000fa
:040210001e060000c6
:020000040000fa
:040214001e060000c2
:020000040000fa
:040020001e060000b8
:020000040000fa
:040014001e060000c4
:020000040000fa
:040034001e060000a4
:020000040000fa
:040044001e06000094
:020000040000fa
:040048001e06000090
:020000040000fa
:040094001e06000044
:020000040000fa
:040098001e06000040
:020000040000fa
:0400e8001e060000f0
:020000040000fa
:04012c001e060000ab
:020000040000fa
:040058001e06000080
:020000040000fa
:040130001e060000a7
:020000040000fa
:0400a0001e06000038
:020000040000fa
:0400a4001e06000034
:020000040000fa
:04016c001e0600006b
:020000040000fa
:040170001e06000067
:020000040000fa
:040174001e06000063
:020000040000fa
:040184001e06000053
:020000040000fa
:040188001e0600004f
:020000040000fa
:04018c001e0600004b
:020000040000fa
:040180001e06000057
:020000040000fa
:080000000002040000000000f2
:020000040000fa
:100400006f9f25000eff27000e01880000000000ee
:10041000000020000000e000020032000001200087
:10042000200288000e000700602428000100200040
:10043000810f7000010032001d0007000000200045
:100440000000e00002003200000002000000000096
:10045000867d0200000000000040da000000fe007f
:10046000a03120000000e000020032000020200047
:100470009001880000000600f03fb1000180b1004b
:1004800006003500ee03090000000000403fb10007
:100490000180b100fbff3d001000b000203fb00024
:1004a0000200350000800900000000000000060086
:1004b000a1028800800478000000eb001f003700d4
:1004c000e284440054a0b4009905ba00e2844400d8
:1004d00054a0b4009906ba00e284440054a0b400c9
:1004e0000006eb00476fde00fd07b200ae0188009a
:1004f000636ce10003003a000ad801000000eb0041
:100500000e003700606ce10008003a00004deb007f
:100510000a05e800020039003420ec000af0a000cf
:100520008b05e900f9ff3e00040037006168e10037
:10053000010032000086eb000b00070019c7ba006b
:100540000e04e0001905ba0003003a000a00e000ba
:10055000dbff3a0000000600fe07b200ae02880092
:100560008a047800f5ff37000cd0a300e20f4d009d
:100570001c00390089027800354dba000a05e800f0
:10058000020039003420ec000af0a0008b05e900dd
:100590000f003200254dba000a05e80002003900bc
:1005a0003420ec000af0a0008b05e90008003200be
:1005b0000c00e0000600320015cdba000a05e80084
:1005c000020039003420ec000af0a0008b05e9009d
:1005d0008984e80054a0b4000b00e000e2ff3a0078
:1005e000000006009902ba00055d78008b05e9005d
:1005f000f7ff3200c82ade00055d78008b05e900b0
:10060000f3ff32000c00e000f1ff320019ddba0008
:10061000eeff3700e27b040000000000707d040064
:1006200000000000ba830400000000008083040082
:1006300000000000bc77040000000000a28304005a
:100640000000000078790400000000001678040023
:10065000000000004c79040000000000727f0400dc
:1006600000000000bc7f040000000000c47f040004
:1006700000000000cc7f040000000000d47f0400d4
:1006800000000000fc800400000000004c8004001a
:10069000000000002206040000000000801f780017
:1006a0003200f8003400f80010002000a00188009b
:1006b0000020200090018800000000000000fa00e7
:1006c000908380000000e800908388009083800081
:1006d0000000e00003003a00a08380000000e80072
:1006e000a083880005e8a9000080fa003400f90022
:1006f0003200f9004f007800004006003600f80094
:10070000809fbe00829fbe00849fbe00869fbe0069
:100710003200f8003400f80010002000a00188002a
:100720000020200090018800000000000200fa0074
:100730000000eb00db1e0700004f78001e40780031
:10074000101e070046d0bf00e14f500025003a00c0
:10075000f0c3b3009e40780080cf500028003200e4
:100760003a70ef00a0c3b3009e40780080cf5000e5
:1007700019003a0037d0bf000040e80037f0b7005a
:1007800037d0bf00e34f50001d003a003770ef0034
:1007900010c0b3001530070060c0b300133007006d
:1007a000d1002000509829005e3307000040eb0084
:1007b0000e300700a0ceb3000c300700f0c4b30029
:1007c0000a30070040c0b300083007004670ef0051
:1007d000401e07000a0037003770ef004670ef0038
:1007e000070037001e407800fb4f500004003a001d
:1007f0003a70ef003770ef0010c0b30046f0b7005a
:100800000168a9000080fa003400f9003200f90004
:100810004f03be004f02be004f01be004f00be009e
:100820003600f90000400600809fbe003200f8004c
:100830003400f80010002000a001880000202000f3
:1008400090018800000000000200fa009070800013
:100850004b00de00004f78009e00fb0040d0bf0040
:100860000080fb00008068006100600000407800ac
:100870000004e00003003200e08180000000e80096
:10088000e08188009e00fb0040d0bf000080fb009c
:1008900000806800620060000000e0000300320099
:1008a000f08180000000e800f08188001e407800a0
:1008b00040f0b7000268a9000080fa003400f90097
:1008c0003200f9004f00be00004006003600f8007c
:1008d000809fbe00829fbe00849fbe00869fbe0098
:1008e0003200f8003400f80010002000a001880059
:1008f0000020200090018800000000000400fa00a1
:1009000039d0bf000004e00021003a0010828000ce
:10091000e10f50003f003600108280000000e90027
:100920001082880045d0bf00f04f500010003a0000
:10093000de1c070020479800dc1c0700000f780031
:100940001e0078004800dd00000f78002e40900067
:100950000080fb001e0f4000000028001e0f40001a
:100960001e0078004500de00000f7800050037000b
:10097000ce1c0700000f78001e0078004300dd0049
:10098000000f78001e007800741607002100370061
:10099000d1300700000f780045d0bf00f04f500065
:1009a00011003a001e0078004400dd00000f7800be
:1009b000000028001e0f40001e0078004800de00e6
:1009c000004078009c1c07000080fb00000f7800ae
:1009d0001e00780000407800971c07000080fb0094
:1009e000000f7800080037001e0078004400de0089
:1009f000000f78001e007800004078008e1c070071
:100a00000080fb00000f7800108280000000e800ea
:100a1000108288000688a9000080fa003400f900de
:100a20003200f9004f03be004f02be004f01be006e
:100a30004f00be003600f900004006003600f80006
:100a4000809fbe00829fbe00849fbe00869fbe0026
:100a5000889fbe003200f8003400f800100020002b
:100a6000a001880000202000900188000000000004
:100a70000c00fa003bd0bf000004e000640032002c
:100a800035d0bf000004e00061003200e08180004a
:100a90008000eb00320507000004be003bd0bf0021
:100aa0000080fb008000eb002d0507000001be0068
:100ab0000800be008a05070020079800310798004b
:100ac000f08180008000eb00250507000004be00d7
:100ad00035d0bf000080fb008000eb002005070040
:100ae0000001be000800be007d0507004007980019
:100af0005107980038d0bf000004e0000500320024
:100b00003bd0bf000080fb000000ea00000f78002f
:100b1000030037003bd0bf000080fb00000f7800cf
:100b200002002000031224004e009000de0090001e
:100b30000e05070018c0b3002e019000be01900002
:100b4000170607000000e000010035000044eb003c
:100b50000804e0001100320036d0bf000004e000bd
:100b60000600320035d0bf000080fb00e1ff2f00ff
:100b700000805000100798000400370035d0bf00f7
:100b80000080fb000080e800100798009e009000a5
:100b90001e007800fe3207001d0037000200200012
:100ba000031224004e009000de009000ee040700c7
:100bb00018c0b3002e019000be0190008a05070006
:100bc0000000e00001003c000044eb000804e000ed
:100bd0000f00320036d0bf000004e00005003200f4
:100be00035d0bf000080fb006200100010079800a5
:100bf0000400370035d0bf000080fb000080e90012
:100c0000100798009e0090001e007800e032070058
:100c10000688a9000080fa003400f9003200f900cb
:100c20004f04be004f03be004f02be004f01be0086
:100c30004f00be003600f900004006000040da0018
:100c40000000fe00881f7800020478000801780088
:100c50007d000700080040004f04780000000600f7
:100c60000000fa00881f780000047800ea8157002d
:100c70003fb99700880078002062200079000700c3
:100c80000000e0000200350000044400004ceb00ce
:100c90004f0478000080fa0000000600889fbe0024
:100ca00000047800f19681000100e00002003200ab
:100cb000010078000d00370001978100002e23000d
:100cc00004003700910f5400250036000180e80031
:100cd000910090000100e000faff3a001000370098
:100ce000920f54001e0036000280e80010017800c8
:100cf0000200e000faff3a0011017800019781003c
:100d0000002e230004003700910f54001400360019
:100d10000180e80091009000828f5000faff3a00b5
:100d200019978100888f54000100310088047800f1
:100d300009007800fd0007000000e00004003a0010
:100d4000888f5400050032008904d100f5ff370078
:100d500009187800ff000700d2ff37000000eb0001
:100d60004f04be0000000600881f780063044000a6
:100d70000800a1008000eb00800f54002100360025
:100d8000e30f540001003e004800200008007800f6
:100d9000c2ff07008000eb000000e00019003200f5
:100da000900078009101780064815100880f510013
:100db000030031001101900002087800070037009d
:100dc000088140000208780091019000130198000a
:100dd00010017800110914008808780010017800cb
:100de0000000eb000200e0000400320092019000dd
:100df0000300e000010032000280e800f096890064
:100e00008180e800010078004f04780000000600af
:100e1000889fbe008088b90080047800d2ff070058
:100e2000000478000800e0000400320009017800a6
:100e30008000eb0008007800f80007000800780048
:100e40004f04be0000000600800178000200370059
:100e5000b15978000201e9000200e000fcff3a000d
:100e6000000006006200fa00889fbe008a1f78001a
:100e7000000578008104780002047800830078007f
:100e800080f92f000f004000eb0007009a979f00a9
:100e9000a9979f000000eb00b09f9f001885fb0002
:100ea0008a04fb000a05ea004f55de0050022000cc
:100eb000808f54000d003200e10f55000b003a0006
:100ec0000a017800880078002f9097009f91970082
:100ed00003000100a0979f000000e0008e00320098
:100ee0003f9897000000e800b09f9f000a0444006c
:100ef00050022000808f5400040032000900e000fe
:100f0000e6ff3a003f989700840037000000eb00ae
:100f1000909f9f00809f9f00f0979f00e0979f0009
:100f2000d0979f00c0979f0007003700812d2300b6
:100f30000100500000004000c12c230080804000d0
:100f40005f98970011007000d09f9f008804780080
:100f500009047800384578008a00fb00802d2300c2
:100f6000b70007000000e000f0ff3a00a1c2b300a4
:100f7000814f55000e003a00cf8897000180e900ac
:100f8000c08f9f0010007800c09f9f000000e0000d
:100f900005003d000000ea00c09f9f005f98970099
:100fa0000020a000d09f9f000904e8000f00370038
:100fb000c09f9f000000eb0005003700f2ff2700f4
:100fc000820f500002003200ea00b90000804000a9
:100fd0000904780088047800b900fb000103b1001f
:100fe000e98f5000f5ff3600c09f9f00e0c2b300bc
:100ff000984f1000020032000080eb00190037000b
:10100000a0c2b300d84f100007003a00cf88970065
:101010000180e900c08f9f0010007800a09f9f0012
:101020000804e800100037000000eb00a09f9f00bc
:101030008800780005003700f3ff2700830f500079
:1010400002003200ea00b90000004100010478000b
:10105000880078003101fb000203b100e90f510064
:10106000f5ff3600a09f9f00984478008900fb00a0
:10107000402c2300720007000000e0000200320054
:101080000804e800010037008044eb00c97f9f009e
:1010900080c6b30080cf540004003a0098cf1400fb
:1010a0000a003a006640500006003700c0c6b30090
:1010b00080cf540005003a0098cf140003003a0096
:1010c00065404000c07f9f000804e8001801fb0055
:1010d000e3fb2f008f81410081f92f008f804000ba
:1010e000a0f92f000f004000610007000000e000a1
:1010f00009003a00e1fb2f008f804000a0f92f008b
:101100000f0040007c0107000000e00002003500f5
:101110000804e80061ff37000080eb004f0578000d
:101120004f04be000080fa00000006008000780036
:101130000000eb000100e000050034000100780031
:1011400066030700e10f400001003a000000eb00d9
:10115000000006000000e0002f003200c00178000f
:10116000e38f51002c0036000308a3002a003a0048
:10117000019781000100e00002003200810f500061
:101180000400310011009800009789001600370014
:1011900082007800110190000200e000020032009d
:1011a000800f5100faff390011027800848240005c
:1011b000850f500018003900808f520003003a005c
:1011c0008308420001007800070037000200e000b9
:1011d0000300320083014000830f51000e003900ec
:1011e0001200980090009800900090000100e0002c
:1011f0000900320010014000828f500006003a00c2
:10120000e22d23000009eb001001780011084100d5
:101210009100900011009800000006008001780005
:1012200002003700815978000201e9000200e00065
:10123000fcff3a00000006000108780000000600ec
:10124000020037000304e0000600320000017800cd
:1012500002007800b041780081cf5100f9ff3a00d8
:10126000010037000001eb000200780000000600da
:10127000889fbe008a9fbe00e4c6b300844f510021
:10128000ce00320010003c006b425200844f5100ef
:101290001800320005003c0054c2b300844f5100d6
:1012a0000601320084c5b3000f00370044c6b30006
:1012b000844f51001500320065424200844f5100b6
:1012c00001013a001100370004c7b300844f5100f8
:1012d000ed0032005f00350065424200844f51004e
:1012e0005c00320063424200844f5100f6003a0035
:1012f000580037001181e90082087800f000900062
:101300008181410092497800f50037002062900009
:10131000c5c6b300854f520008003a00910278001c
:1013200064825200840878009402900014027800cd
:101330004fabde00860378001600370015c7b300f8
:10134000854f520003003a001104780068025400ef
:1013500005003700a5c6b300854f520008003a00cb
:101360009104780068825400840878009402900008
:1013700024039000b40390001402780005003700a5
:101380001182e9008408780014027800cfa2de0000
:10139000612bb9000498be000690be00a0609000ca
:1013a00088c6b30088cf50000d00320028c6b300b5
:1013b00088cf500004003a000402fb00cfa2de00f8
:1013c000612bb9000800370048c7b30088cf500030
:1013d000030032006644440088cf500004003a0005
:1013e000cfa2de00612bb9000498be000690be00bb
:1013f000100278009002900020039000b00390004b
:10140000f0009000e00f5200e08f5a00e00f5b0008
:10141000e08f5b0003003d0001824100d5c2b300b4
:101420000a003700001290000418a30003003200e5
:1014300001824100b5c2b300040037000408a300d4
:10144000590032000182410005c2b300054a78000c
:101450005300370020629000c5c6b300854f52008c
:1014600009003a00110578006402550084087800ec
:1014700014047800940490006055b8000802be007f
:101480000a03be001600370015c7b300854f52008f
:1014900003003a0091047800688254000500370088
:1014a000a5c6b300854f520008003a001105780028
:1014b000680255008408780094029000240390008c
:1014c000b403900014027800050037001182e9008f
:1014d00084087800140278008002eb006033b800c2
:1014e0000498be000690be00a060900088c6b300bd
:1014f00088cf50000d00320028c6b30088cf5000be
:1015000004003a000482fb008002eb006033b80064
:101510000800370048c7b30088cf500003003200ee
:101520006644440088cf500004003a008002eb007b
:101530006033b8000498be000690be008010900092
:101540000138a300180032001002780090029000c9
:1015500020039000b0039000e00f5200e08f5a008b
:10156000e00f5b00e08f5b000f00320081c7b3002b
:10157000814f51000300320081c5b300814f5100fb
:1015800009003a00f00090000182410005c3b30059
:10159000054a78008100e80001824100024a780093
:1015a0008100e80071009800f00090008181410006
:1015b00063009800824078003e003700a0619000f0
:1015c000c4c6b3001181e90084cf5100220032006b
:1015d0000a003c006442520084cf510025003200d2
:1015e00004c2e80084cf5100130032006842520068
:1015f00084cf51001e003a000a00370044c7b300f0
:1016000084cf51001b0032006642420084cf51005b
:10161000180032006942520084cf510014003a0091
:10162000050037008208780092007800405890004a
:10163000804878002c0037008208780092007800fb
:10164000600a9000cfa2de00612bb9008498be0032
:101650008690be002400370082087800920078004f
:1016600060099000cf91de008288be001e00370026
:101670001181e900820878009200780060089000eb
:1016800080087800180037001181e900820878008e
:1016900012027800cfa2de00612bb9000498be00d0
:1016a0000690be00f0009000818141006300980028
:1016b00081c7b300cc0007000b003700f00090009a
:1016c0008181410005003700f000900081814100d8
:1016d0000204e00001003a0052c2b30082497800df
:1016e0008100e800710098000000eb004f05be008b
:1016f0004f04be00000006000400fa00889fbe00f0
:101700008a9fbe008c1f78000004780001067800d4
:10171000f80d900078009000808555000808900032
:101720008085550018089000808555002808900095
:101730008085550038089000808555004808900045
:10174000808555000002220090bf9f000003230007
:10175000a0bf9f00081090000028a30015003a00c9
:101760000b00e000130034000b0578008a047800b9
:10177000e20f55000100360029002000c80190004a
:1017800009017800ee805700580090000300010026
:10179000500498000000e0008c00320068089000bf
:1017a00009004000600c9800090555004240a9005e
:1017b000eeff3c00780190000200e0000c003400d5
:1017c000c80190008c0078005800900003000100d0
:1017d000500498008080eb000000e0007c003200a4
:1017e000e80890007800900000804000600c9800ad
:1017f000880c90000900e000110034000905780011
:10180000e28f5400010036002a002000c801900039
:101810000a017800ec805700580090000300010096
:10182000500498000000e000680032006808900052
:101830000a004000600c98008a845400edff3700d5
:10184000180990000200e0000c003400c80190006c
:10185000e800900058009000030001005004980038
:101860008080eb000000e00059003200e8089000a2
:101870001808900000804000600c9800a80c9000b0
:101880000900e0001100340009057800e28f5400df
:10189000010036002a002000c80190000a017800eb
:1018a000ec8057005800900003000100500498009d
:1018b0000000e00045003200680890000a00400087
:1018c000600c98008a845400edff370038099000be
:1018d0000200e0000e003400e800900018089000bc
:1018e00080804000c8019000580090000300010073
:1018f000500498008080eb000000e00034003200cb
:10190000e80890003808900000804000600c9800c3
:10191000c80c90000900e0001100340009057800af
:10192000e28f5400010036002a002000c801900018
:101930000a017800ec805700580090000300010075
:10194000500498000000e000200032006808900079
:101950000a004000600c98008a845400edff3700b4
:10196000081090008000eb000028a300180032004f
:101970000b00e000160034008b04780009057800a5
:10198000e28f5400010036002a002000c8019000b8
:101990000a017800ee805700580090000300010013
:1019a000500498000000e000080032006808900031
:1019b0000a004000600c98008a8454004240a9004c
:1019c000eeff3c008000eb00010037008080eb0060
:1019d000010078004f0678004f05be004f04be009e
:1019e0000080fa0000000600fc874700889fbe00c8
:1019f0008a9fbe008c9fbe008e1f78000006780074
:101a000080c5b30080cf50000a003200774040000c
:101a100080cf50000a0032006940400080cf500063
:101a20000b003200302b230080bf9f00ae0020004f
:101a30000a003700222a230082bf9f0006003700d9
:101a4000332b230083bf9f008e002000030037004c
:101a5000342b230084bf9f000e0120001c0278005d
:101a60009c0290002c039000bc0390000605be0071
:101a70000404be0040c6b30080cf50000300320013
:101a80006540400080cf50000b003a00e00f52004c
:101a9000e08f5a00e00f5b00e08f5b0006003d0026
:101aa0006000b8006011b80004045000858458003c
:101ab0000605590087855900e80f570004003200d9
:101ac00040002000f00f57003c003a0001003700b2
:101ad00030002000e00f5400e08f5c00e00f5d005c
:101ae000e08f5d0004003a00dc0890008d012000ca
:101af0000100e000070032008e00e90088806000ed
:101b00008fba97008180420091407800f1ef9f00ea
:101b10007d012000800078008100e900050033008d
:101b20008b05d1000a85d3008984d3000884d300b3
:101b3000f9ff3700089ebe000a96be00130037006a
:101b40008d06e9008e00e900848060000fb99700df
:101b5000810041001141780083fd2f008d814100fb
:101b600082f77900800178008301e90005003300e5
:101b70008783d1000683d3008582d3000482d300fb
:101b8000f9ff3700049ebe000696be001c027800d6
:101b90009c0290002c039000bc039000e00f5200c8
:101ba000e08f5a00e00f5b00e08f5b009300340091
:101bb0000d00e000e2ff3c00900037002c60900038
:101bc00081c6b300814f50000b00320006003c007c
:101bd0000004e00008003200e6c05000814f5000d1
:101be00052003a0004003700c1c6b300814f5000d4
:101bf0004e003a00230037000800e00004003a00dd
:101c00005c0890008d0120000000e0000700320019
:101c1000110009000e84d8000fba9700010042009d
:101c200010407800f0ef9f007d01200011000900b6
:101c30000e84d8000b003700110009000e04d800f4
:101c40008d06e9008e81b900020454008fb8970018
:101c5000088440009841780082fd2f000d0141006a
:101c600083777900000478000800e0000200320069
:101c70000d00e000f0ff3c00cfc4de00614db90074
:101c800027003700e00f5400e08f5c0004003a00aa
:101c90005c0890008d0120000000e0000800320088
:101ca0006171b9000800be00640307000fba970015
:101cb0008000420091407800f1ef9f007d012000fc
:101cc0006171b9000800be00a50107000c003700d3
:101cd0006171b9000800be005b0307008d06e900d2
:101ce00080f1b900020454008fba970008844200c2
:101cf0009841780082fd2f000d0141008377790023
:101d00000004be00e00f5000e08f580002003200d7
:101d10000d00e000eeff3c004fcdde008a057800ac
:101d2000089ebe000a96be0034003700e00f540043
:101d3000e08f5c00e00f5d00e08f5d0004003a0082
:101d40005c0890008d0120000000e0000a003200d5
:101d50006172b900612bb9000800be000a01be0023
:101d6000b90307000fba9700800042009140780045
:101d7000f1ef9f007d0120006172b900612bb90075
:101d80000800be000a01be00a80307000e003700cd
:101d90006172b900612bb9000800be000a01be00e3
:101da000ad0307008d06e90080f2b9000404540079
:101db0008fba9700088442009842780084fd2f0073
:101dc0000d02420085777a00009ebe000296be009a
:101dd0001c0478009c0490002c059000bc05900029
:101de000e00f5400e08f5c00e00f5d00e08f5d00cd
:101df000020034000d00e000e5ff3c00e80f570052
:101e000010003a000c1090000038a3000d003200c2
:101e1000f78f560006003e0080fd2f000d004000a9
:101e2000ef40780000c3b30080cf500005003200bf
:101e300002c3b30071fd2f008d8040008d06e900c4
:101e400082f7780078811600120e98006c009000de
:101e500083fd2f008f8141008d804100fafb070038
:101e60001c089000dc089000810f500006003d0027
:101e700000805000000e98000c1090000040a1005f
:101e8000001698000f0037000100e0000d003d0033
:101e90008c109000f4806000f08f500009003a0030
:101ea0007c099000fc009000810051000c0990001a
:101eb00082805000008050004240a90001003400a0
:101ec000000e98004f0778004f06be004f05be0079
:101ed0004f04be00cf01b10000000600889fbe0085
:101ee00080047800209781000000e00004003a00a0
:101ef0000e0007000084eb000000e0000800350041
:101f0000289781000900e000050032000900440024
:101f1000060007000000e00001003d000084eb0027
:101f2000080078004f04be00000006008000780022
:101f30000100e00003003a00602e23002097890092
:101f4000000005000080eb00629f2500828f50009a
:101f500002003e00219789000000eb00000006000f
:101f60006011b8007d01370003f0a200889fbe0019
:101f70008a9fbe008c1f7800a7010700ae013300c6
:101f80006450e1004f0032006420e1005200320052
:101f900003826c0007003b000905d0000306d00057
:101fa000820f54000c065d0002003900020032006e
:101fb00089017800030678008582550004003d0001
:101fc0000003fd008103fd008502ea008b854200cd
:101fd000840f720002003b0060001000e0801800d7
:101fe0006011b8000005eb007a28e1000a00390012
:101ff00006007800c75ddd00f707b2008780750036
:102000002d003700828171000a01780061056000af
:102010008180d1000080d3008502e900f9ff3b00f8
:10202000060440008784480002003b00600414005e
:10203000e0841c000988a300070032008a81710037
:1020400082817100610164008904d1000884d30099
:102050008b05e800170037000978a30013003a0049
:102060000b00e000130034008b05e9000804440075
:1020700089844c000a4474000978a3000d003a00da
:102080000b00e000070034008b05e9000804440061
:1020900089844c0001003a000b0020000978a3005d
:1020a000f7ff32000001eb0002003700828171006f
:1020b0000a017800700107000cf0a70001f0a000f1
:1020c000660137006420e10002003a00838f6c0053
:1020d000660133000801be000200be005f01370048
:1020e000889fbe008a9fbe008c1f78004a010700af
:1020f0005101330003866c006450e1002e00320071
:102100006420e100330032006150e1002f00320012
:102110006120e1003100320085855500eb07b000f9
:1021200009002000080420000500370008044400ce
:1021300089844c000a0031000603430087834b006a
:102140000001530081815b00f8ff33000203be00f1
:102150000800a0000804440089844c00f6ff390000
:10216000c639dd0083017300010032001300200036
:102170008904d1000884d3000998a3000500320027
:102180000800a7000300a0008904d1000884d30040
:102190008b05e8008904d1000884d3000001eb001e
:1021a0000281d2003401070001f0a1000cf0a70069
:1021b00001f0a000290137006420e1002b0132006a
:1021c0000801be000200be00f7ff37006120e100f9
:1021d000260132006000b800f3ff37000000200045
:1021e00001f82700f0ff3700f4ff2f004801370007
:1021f0006201070092bd2500e3ed230000003700d7
:10220000889fbe008a9fbe008c1f780002010700d5
:102210000901330003866c006450e10024003200a1
:102220006420e100270032006150e100220032000a
:102230006120e100210032008b854200eb07b100f4
:102240000134b800003ab8000804420089844a000a
:10225000013ab8000030b8008880400009014a0007
:102260000400330000004000818048000201490062
:102270008b05e900c909dd0083017000010032000f
:1022800013002000c814de004814dd004709de00fa
:102290001200b200c808de0008847000f6000700d3
:1022a00001f0a1000cf0a70001f0a000eb00370046
:1022b0006120e100ed0032000801be000200be0016
:1022c000f7ff37006150e100fcff3a00e7003700fc
:1022d0000001be00800107000470a70003f0a10008
:1022e0006509b100160032000d0035006828e100d4
:1022f00006003500f0ff2f00f1ff27000300e0008b
:1023000013003b0001002800000005000000400011
:10231000818048008502e900fcff3a000800370090
:10232000f88f420002003c008000eb000000050036
:102330008100d1000080d3008502e800fcff3a0054
:102340000300e00002003b0060001000e080180085
:10235000000006004f89de0082017800730137001b
:102360006022b800060220000000d0008180d20068
:102370000482d2008582d2000000a0000202520036
:1023800083825a00030031000202420083824a0025
:102390000000a1000603e900f3ff3a000000060078
:1023a00014002000da0037000001eb006f01070085
:1023b000040032000200200003f8230001f0a7000f
:1023c000e9fe070000000600889fbe008a9fbe004d
:1023d0008c9fbe000004be003f0107000800be0045
:1023e000890678006420e10008003900040032000a
:1023f0000160a000120220006284880053003700b0
:1024000091fc2300b0fd20004e0037000006eb00d9
:1024100009f0a10003f82300020020000800be001c
:10242000dfff07000600340001f823000000200051
:102430000801be002aff07000004be002c00200097
:102440000800be0093e82300320a2300d4ff0700ef
:10245000120034000801be00d1fd2300703d2b00a6
:10246000c2fe07000005be00b3f32300f27a260087
:102470000800be0062ff070003f8230002002000ee
:10248000b9fe07000801be00b8fe07000a01be0041
:1024900013ff07000004be000c06e8000800be00a1
:1024a00001f0a1000200200003982300bcff0700f8
:1024b0000800be00160035000801be0050ff0700ee
:1024c0000005be0032cd2c0043fb2300a7fe070011
:1024d000809fbe001269280003d52b000a00be00b1
:1024e00047ff0700620f210013ef2b009ffe07003c
:1024f0000a01be0042ff07004f01be00f8fe0700c0
:102500000801be003eff07000801be0097fe07005d
:102510000c00e0000b0032000c10a70001f0a2003c
:10252000b2fd200093fc23006260e1000400320051
:1025300022a9200063f023000c10a70063f82300f9
:102540008afe07000df0a70001f0a2004f06be00b2
:102550004f05be004f04be0000000600889fbe006d
:102560008a9fbe0000827000040271000482710024
:10257000260032000004be000200be006011b80058
:102580006b092000950220000182cf000a0039006b
:102590000541b1000082cf00070039000541b100bc
:1025a0000982cf00040039000541b1000882cf0044
:1025b000010039000541b10005425200120032000d
:1025c0000a003b0082817100610164008100d1003a
:1025d0000080d3008984d3000884d3008b05e800f1
:1025e0000442e800f7ff3a000700370008044400ff
:1025f00089844c0000004800818048008b05e90078
:102600000442e900f9ff3a001b0007004f05be0035
:102610004f04be00000006000004be00ae0007002c
:102620000003be000405be000200be00aa000700b1
:10263000844f7500000006000200be006450e100f7
:10264000050036006420e100020036000968a3009e
:1026500001003a000800be000160a0004f067800ab
:102660004f05be004f04be0000000600f0ff2f0023
:10267000f1ff2700f9ff370081002000618055003d
:102680000b003d000b00200061fe2f000100e10067
:102690001d00340082817100610164008904d10051
:1026a0000884d3000000e800faff3a00710020001f
:1026b0006100640003007000020060000900320045
:1026c00061044400e0844c000988a5000500320044
:1026d0008b05e8006808e10002003a008904d10097
:1026e0000884d300f20f20000258e10005003d00ed
:1026f000c75ddd00f907b200898075000800780029
:10270000000006000bf827008b0078000000050091
:10271000889fbe008a9fbe00841f7800beff07000e
:102720004f00780011003300f0ff2f00838f6c0002
:1027300006003b00040565000a00a70008003700fa
:1027400009f0a6001000200008003700820f540096
:10275000838f5c00030039001000200001003e0060
:102760000000200009f0a7000000ea004f05be00ad
:102770004f04be000000e00000000600889fbe007d
:102780008a9fbe008c9fbe009f00070085047800d2
:102790000005be006420e10049003e006220e10027
:1027a00003003200090035000bf8a300440032009a
:1027b0000bf8a3000800320010022000608488009b
:1027c000f0ff2f00f1ff27003d00370001f82f0038
:1027d000000020003a0037003d000700e2fd07003e
:1027e0000006be000a00be00324f200053f3230053
:1027f0007dfe0700060034000c00be003400070018
:10280000d9fd07000006be000a00be000200370026
:102810008904e9000c00be002d00070078fe0700c7
:102820002b000700d1fd07000001be000c00be0018
:102830002bfe07000005be000001be0070fe070071
:102840000006be00a2f32300430d2c00c7fd0700c5
:10285000809fbe000c00be00d2e32700d3f02b0007
:1028600067fe07004f01be001dfe07000006be0008
:102870000a01be0062fe07000a01be00bbfd0700a0
:102880000006be006148b900b2fe07000005be00a8
:1028900032082800e3952b0059fe07000c01be000a
:1028a000b2fd07000006be000a00be0002002800bc
:1028b00013f3230052fe07000c01be00abfd07001e
:1028c0004f06be004f05be004f04be0000000600cc
:1028d00003f0230002000500c70ade00f107b20082
:1028e000f50fb20008003200e1cf420002003200d2
:1028f0000170a00024000500810f7000010032006b
:102900000408050044000500810f700002003a0031
:10291000140005008502e9000000400081c0480065
:10292000fcff3b000170a00024000500881f780018
:10293000030478000300e00007003d006000100081
:10294000e080180060011900e081190002003b00de
:1029500001f02d000300370000ff070008f0a7007a
:1029600001f0a0004f04780000000600889fbe0020
:102970008a9fbe000003be00d7ff070085057800d0
:1029800082815200020020006220e10004003a002f
:10299000f307b100040035007718e10004003500aa
:1029a0000600be00140037006000b8000f003700ba
:1029b000f50f2000faff2f008502d1000a85d30011
:1029c0008301e900fcff3b00818462000004650094
:1029d000890f7400f2ff32008582ea000a85ea005e
:1029e000818462000004650023ff070007f0a70050
:1029f00001f0a0000081eb000200e0004f05be00e6
:102a00004f04be00000006000003be00b2ff070036
:102a10006220e100020032000600be000500050051
:102a2000e507b100f107b20004f0230084807000d4
:102a300007f0a70001f0a0002400050048fe0700f1
:102a40000400be0000000600839f68000100e00053
:102a500002003d0060001000e08018000300e0006c
:102a600002003d0060011100e08119003cfe0700fa
:102a70004f00e00002003b0060001000e080180002
:102a800000000600889fbe008a9fbe0030044200fe
:102a9000b0844a0030054b0090854b006000b100c7
:102aa0000898be000a90be00c30007000200310073
:102ab000680040001008e8004f05be004f04be004b
:102ac00000000600889fbe008a9fbe0010047800a8
:102ad0009004900020059000b00590000418540068
:102ae00005985c0006185d0007985d001100200045
:102af000b1000700010039008000eb0010881000d1
:102b00004f05be004f04be00000006001200fa0090
:102b1000889fbe008a9fbe008c9fbe00e0b79f00ca
:102b2000f1b79f0082bf9f0093bf9f000605be00c4
:102b30000404be000000eb00d0b79f00c0b79f00a8
:102b4000b0b79f00a0b79f0090b79f000006eb00b2
:102b50005fb19700cfb09700820141003fb097006e
:102b60000200e00004003d00980007007e8057004e
:102b7000c4ff070003003700940007007e80570061
:102b8000d0ff0700dfb697000d00e0000c00350015
:102b90006fb29700ffb297000fbb97009fbb9700e3
:102ba00010002000010020006011b8000002720037
:102bb0008182720002037300838373005800070050
:102bc0000c06e80001042000810f5600e0ff3a00e7
:102bd0000d00e00004003d000802be000a03be0034
:102be0007e805700a7ff07005fa897000000e00065
:102bf00005003a001fb29700afb297003fb39700ad
:102c0000cfb39700460007006fb09700ffb0970062
:102c10000fb997009fb997004f06be004f05be0041
:102c20004f04be000080fa0000000600881f7800f4
:102c300018002000881f7800b4ff07008f87e90084
:102c40004f04780000000600801feb00afff070074
:102c50008f87e90000000600889fbe008a9fbe00a3
:102c60003d00070007003d0040000700180020005d
:102c70004500070008003d002b0007000004eb00a2
:102c8000050037000004eb003f00070002003d0094
:102c90002500070018002000e4ff07000800e000fe
:102ca000010032003d0007004f05be004f04be008a
:102cb00000000600889fbe008a9fbe008c1f78001f
:102cc0002500070008003d00280007001c00200028
:102cd0000820e10009a8e1000ab0e1000bb8e1001a
:102ce00007003d00050037000006eb002600070046
:102cf00003003d006044b8006055b8000c000700b8
:102d0000d1ff07000c00e0000100320023000700a3
:102d10004f0678004f05be004f04be0000000600bd
:102d200008000700000006006044b8006055b800c5
:102d30000402540085825c0006035d0087835d0009
:102d400000000600a4b79f00b5b79f00c6b79f005c
:102d5000d7b79f0000000600e00f5000e08f58003a
:102d6000e00f5900e08f5900000006006044b800f1
:102d70006055b8000000540081805c0002015d00d5
:102d800083815d0000000600e00f5200e08f5a00d2
:102d9000e00f5b00e08f5b00000006006022b800df
:102da0006033b8000000520081805a0002015b00cd
:102db00083815b00000006000440e10005c8e100db
:102dc00006d0e10007d8e100000006004f09de0050
:102dd00082817100b3b79f004f01de008180400007
:102de00082807000a1b79f008fb097004f09de006e
:102df000000040000200700090b79f007fa897007d
:102e00004f01de00818040008280700081b79f000a
:102e10000d0007004f3ade00000040000400700083
:102e2000f0af9f00080007000402420085824a00bc
:102e300006034b0087834b00c2ff07000802be0059
:102e40000a03be00000006002fb29700bfb2970031
:0c2e50004fb39700dfb3970000000600ae
:020000040000fa
:0200000401f009
:04000800cfff000026
:020000040000fa
:0200000401f009
:04000c00fbff0000f6
:020000040000fa
:0200000401f009
:04001000baff000033
:020000040000fa
:0200000401f009
:040014007fff00006a
:020000040000fa
:0200000401f009
:04001800ffff0000e6
:020000040000fa
:0200000401f009
:04001c00dfff000002
:020000040000fa
:0200000401f009
:04002000ffff0000de
:020000040000fa
:0400e4004e030000c7
:020000040000fa
:040054007e03000027
:020000040000fa
:040074001404000070
:020000040000fa
:0400f800660400009a
:020000040000fa
:0400f4001e050000e5
:020000040000fa
:102e5c00000000000000000000000000065f000001
:102e6c000600000007030000000700000324000018
:102e7c007e2400007e240000242b00006a12000037
:102e8c000063000013080000646300003649000072
:102e9c005620000050000000070300000000000056
:102eac00003e00004100000000000000413e000018
:102ebc0000000000083e00001c3e00000808000056
:102ecc00083e00000808000000e000006000000060
:102edc00000800000808000008080000006000005e
:102eec006000000000200000100800000402000038
:102efc003e510000494500003e000000427f0000aa
:102f0c0040000000625100004949000046220000c8
:102f1c00494900004936000018140000127f0000d7
:102f2c001027000045450000453900003c4a0000d0
:102f3c004949000030010000710900000503000040
:102f4c003649000049490000360600004949000096
:102f5c00291e0000006c00006c0000000000000046
:102f6c00ec6c00000000000008140000224100007e
:102f7c000024000024240000242400000041000050
:102f8c00221400000802000001590000090600008c
:102f9c003e4100005d5500001e7e00000909000046
:102fac00097e00007f49000049490000363e0000c0
:102fbc0041410000412200007f41000041410000de
:102fcc003e7f000049490000494100007f09000094
:102fdc0009090000013e000041490000497a000047
:102fec007f080000080800007f000000417f0000ff
:102ffc004100000030400000404000003f7f0000d6
:10300c0008140000224100007f40000040400000f6
:10301c00407f000002040000027f00007f020000dd
:10302c00040800007f3e000041410000413e0000ca
:10303c007f09000009090000063e00004151000014
:10304c00215e00007f0900000919000066260000bf
:10305c004949000049320000010100007f010000d5
:10306c00013f000040400000403f00001f200000d6
:10307c00402000001f3f0000403c0000403f00008b
:10308c0063140000081400006307000008700000bf
:10309c0008070000714900004543000000000000d3
:1030ac007f410000410000000204000008100000f5
:1030bc0020000000414100007f00000004020000dd
:1030cc00010200000480000080800000808000006d
:1030dc000003000007000000002000005454000012
:1030ec00547800007f44000044440000383800004d
:1030fc0044440000442800003844000044440000cc
:10310c007f3800005454000054180000087e000062
:10311c000909000000180000a4a40000a47c000011
:10312c007f0400000478000000000000007d000017
:10313c000000000040800000847d0000007f000043
:10314c001028000044000000000000007f40000038
:10315c00007c000004180000047800007c040000cf
:10316c00047800000038000044440000443800009b
:10317c00fc44000044440000383800004444000083
:10318c0044fc0000447800004404000008080000df
:10319c005454000054200000043e0000442400005d
:1031ac00003c0000402000007c0000001c200000bf
:1031bc00402000001c3c000060300000603c00001f
:1031cc006c100000106c0000009c0000a06000005f
:1031dc003c00000064540000544c00000008000047
:1031ec003e41000041000000000000007f00000094
:1031fc0000000000414100003e08000002010000f8
:10320c000201000000310000333a000035380000a4
:10321c003a35000036000000313200002f3000003b
:10322c00372f000031370000002100004241000020
:10323c0054540000204c00004f57000021000000a7
:10324c00506c0000656100007365000020520000a6
:10325c006563000068610000726700006500000093
:10326c004368000061720000676500003a200000ae
:10327c0020000000426100007474000065720000c0
:10328c00793a0000200000002520000020000000fa
:10329c00004600006f7200006d7500006c6100004c
:1032ac00204100006c6c0000436f0000646500005e
:1032bc000057000061690000746900006e6700002f
:1032cc00204600006f720000205300007769000058
:1032dc007463000068000000202000002020000023
:1032ec0020200000202000002020000020200000d2
:1032fc0020200000202000002020000000460000bc
:10330c0041200000436f00006e6e000065630000fa
:10331c0074650000640000006865000072650000c0
:10332c000a0000006865000072650000310a0000a8
:10333c000068000065720000653200000a000000a1
:10334c006865000072650000330a0000006e000022
:10335c006578000074430000656c00006c0a000086
:10336c00006e00006578000074430000656c00007e
:10337c006c7300000a0000006e6f000074560000b1
:10338c00616c0000696400004f0a000000610000dd
:10339c00744e00006f6e00005669000073740000dc
:1033ac0065640000436500006c6c00000a000000be
:1033bc0065720000726f0000720a00000054000079
:1033cc00757200006e57000065730000740a0000ef
:1033dc0000540000757200006e4e00006f72000009
:1033ec00746800000a00000054750000726e000042
:1033fc0045610000737400000a0000005475000061
:10340c00726e0000536f000075740000680a0000b3
:10341c0000000000535200005f250000645f0000b4
:10342c00256400005f250000645f00002564000037
:10343c005f250000645f0000256400005f2500002c
:10344c00645f0000256400000a000000534c00007b
:10345c005f250000640a0000534500005f25000052
:10346c00645f0000256400000a000000576500003e
:10347c007374000041630000746900006f6e0000fb
:04348c000a00000032
:020000040000fa
:103490000600fa00000f7800110798002207980034
:1034a0001e007800900078001e0090000080ea0066
:1034b000808060002e0190001e00900000006100de
:1034c000810070001e007800010878000080fa007a
:1034d000000006000800fa00000f780011079800ad
:1034e00022079800330798001e0090009000780093
:1034f0002e0090000080ea00808060001e00900096
:10350000010878001e007800900078002e009000de
:103510000080ea00808060003e0190002e00900054
:1035200000006100810070001e0078000108780032
:103530000080fa00000006000600fa00000f780084
:1035400011079800424798001e007800900078000c
:103550001e009000808060004e4090000080fb00c4
:103560000008de000080fa00000006000800fa00f3
:10357000000f780011079800220798006347980011
:103580001e009000900078002e00900081007000d6
:103590001e009000010878001e007800900078005e
:1035a0002e009000808060006e4090000080fb0044
:1035b0000008de000080fa00000006000600fa00a5
:1035c000404798000040eb00004f78000d003700a6
:1035d0000000eb00100798000500370010c0b30092
:1035e0000e0007001e0090000000e8001007980081
:1035f0009e009000603e2000808f5000f7ff340056
:103600001e4fe8004e4090009e40780080cf500052
:10361000efff35000080fa00000006000400fa0009
:10362000204798000040eb00004f7800050037006d
:103630000060fe0000172100110020008ef307003b
:103640001e4fe8002e4090009e40780080cf500032
:10365000f7ff35000080fa00000006000200fa00c3
:10366000000f780005003700a05b24000100200057
:1036700081f3070011f02f001e8f4000f00f200093
:103680009e007800808f5000f7ff3e001e007800fb
:103690000000e0001b0032001e0078006101b8004d
:1036a000f00f2000010020000202780003017800e2
:1036b00080017800010078000302620000006100d0
:1036c0006101b800c011dd00020020000200be0050
:1036d0006121b80002007000838070006204200045
:1036e0008289b900e002b900840178000301410039
:1036f000630420000300b80001014100820078004b
:103700005df307000080fa00000006000200fa00e6
:10371000000f78000500370000e9250001112000a6
:1037200055f3070011f02f001e8f4000f00f20000e
:103730009e007800808f5000f7ff3e001e0078004a
:103740000000e0001b0032001e0078006101b8009c
:10375000f00f200001002000020278000301780031
:10376000800178000100780003026200000061001f
:103770006101b800c011dd00020020000200be009f
:103780006121b800020070008380700002172100e0
:103790008289b900e102b900840178000301410087
:1037a000031721000300b8000101410082007800e6
:1037b00031f307000080fa00000006000200fa0062
:1037c000000f78000400370000c0eb0093ff0700f3
:1037d00011f02f001e8f4000f00f20009e00780097
:1037e000808f5000f8ff3e001e0078000000e000cf
:1037f000030032001e0078000040780087ff0700b9
:103800000080fa00000006000200fa00000f7800b5
:103810000500370000282600117f220016f307005c
:1038200011f02f001e8f4000f00f20009e00780046
:10383000808f5000f7ff3e001e0078000000e0007f
:103840001c0032001e0078006101b800f00f20005b
:103850000100200002027800030178008001780056
:103860000100780003026200000061006101b800fd
:10387000c011dd00020020000200be006121b8007e
:10388000020070008380700002d821008289b90094
:10389000c34220008382b900840178000301410003
:1038a00003d821000300b800010141008200780024
:1038b000f1f207000080fa00000006000200fa00a2
:1038c000000f78000400370000c0eb003bff07004a
:1038d00011f02f001e8f4000f00f20009e00780096
:1038e000808f5000f8ff3e001e0078000000e000ce
:1038f000030032001e007800004078002fff070010
:103900000080fa00000006000600fa00000f7800b0
:103910001107980022079800ae0090001e0090004a
:10392000808f5000040031002e0090001e004000e7
:1039300010407800010037000040eb000080fa00e2
:10394000000006000600fa00100798002107980002
:103950000000eb00000f7800060037001e0090000a
:103960001e004000104078000004e0000500320016
:103970001e0fe8002e0090009e007800808f5000ff
:10398000f6ff39001e0078000080fa0000000600f3
:103990000e00fa00100798002107980032079800df
:1039a0004307980054079800650798006e00900040
:1039b0000000e00002003a005e0090004000370086
:1039c0000000eb00000f7800060037001e0090009a
:1039d0001e004000104078000004e00005003200a6
:1039e0001e0fe8002e0090009e007800808f50008f
:1039f000f6ff39003e0090009e0f50000400390091
:103a00005e0090008040eb00014878002b003700fa
:103a1000be0090004e009000008040009e0f5000bd
:103a2000030039003e0090001e001000400798007f
:103a3000ce0090006e009000808f50000200360093
:103a4000ee009000410798009e0090003e0090001c
:103a500000804000100798000000eb00000f780085
:103a60000b0037001e009000904078005e00900030
:103a7000014878005e0090000000e80050079800c0
:103a80001e0090000000e800100798001e0fe800dc
:103a90004e0090009e007800808f5000f1ff3900aa
:103aa0006e0090009e007800808f5000030031006f
:103ab0005e0090008040eb00014878005e009000be
:103ac0000080fa00000006000c00fa0010079800c1
:103ad0002107980032079800430798005407980080
:103ae0005e0090000000e00002003a004e009000ee
:103af000320037000000eb00000f780006003700ae
:103b00001e0090001e004000104078000004e000fd
:103b1000050032001e0fe8002e0090009e00780085
:103b2000808f5000f6ff39003e0090009e0f50003d
:103b3000020036009e00780031079800be00900019
:103b40005e009000808f500002003600de00900082
:103b5000310798000000eb00000f78000b003700e1
:103b60001e009000904078004e00900001487800c0
:103b70004e0090000000e800400798001e009000f2
:103b80000000e800100798001e0fe8003e009000bb
:103b90009e007800808f5000f1ff39005e00900099
:103ba0009e007800808f5000030031004e0090008e
:103bb0008040eb00014878004e0090000080fa0041
:103bc000000006000e00fa00200798003107980058
:103bd0004207980053079800640798006e00900011
:103be0000000e00002003a005e009000390037005b
:103bf0000000eb00000f7800060037002e00900058
:103c00001e004000104078000004e0000500320073
:103c10001e0fe8003e0090009e007800808f50004c
:103c2000f6ff39004e0090009e0f50000200360053
:103c30009e007800410798004e0090001e00100082
:103c400010079800ce0090006e009000808f50000a
:103c500002003600ee00900041079800ae00900090
:103c60001e00900000804000200798000000eb003c
:103c7000000f78000b0037002e0090009040780075
:103c80005e009000014878005e0090000000e800af
:103c9000500798002e0090000000e80020079800d0
:103ca0001e0fe8004e0090009e007800808f5000ac
:103cb000f1ff39006e0090009e007800808f500068
:103cc000030031005e0090008040eb000148780066
:103cd0005e0090000080fa00000006000e00fa006e
:103ce000400798005107980062079800ce009000a6
:103cf0001107980000712200200798000000eb00d7
:103d0000300798006e0090000000e00002003a00ca
:103d10000040eb004b0037001e0090000000e00068
:103d200009003d005e009000d1c2b3000148780058
:103d30003e0090000000e800300798001e00900050
:103d40000000ea00100798000040eb00004f7800e8
:103d50001e0090000000e00028003a0010c0b300f0
:103d6000004f780010002000200798002300370043
:103d70009e0090002e009000808f500003003100c4
:103d80001e4078000004e000170032009e00900002
:103d90002e00900000017800110009008280d800f8
:103da000004f7800de0090003e0090000080400050
:103db00002c3b3009e404100014878003e009000dd
:103dc0000000e800300798009e0090001e81fb0074
:103dd0002e0090008090b9000080500010079800dd
:103de00010c0b300004f7800ae009000d0cc2c0083
:103df0000008b8004308de0020079800be009000cd
:103e00006e009000808f5000030031002e00900063
:103e10000000e000d6ff3a00be0090006e00900067
:103e2000808f500005003100de0090003e009000c1
:103e3000008040008040eb00014878003e00900088
:103e4000004078000080fa00000006001400fa002c
:103e50006007980071079800020f9800130f9800f0
:103e60006e019000fe019000120798002307980051
:103e700000a02c00a1b9230030079800410798004a
:103e80000000eb00500798001e0890000000e000c2
:103e900002003a000040eb00670037001e0090006f
:103ea000ae009000e00f5000e08f58000c003d0085
:103eb0000e089000d1c2b300014878005e00900067
:103ec0000000e800500798001e009000ae0090002f
:103ed00060001000e080180010079800210798008b
:103ee0000040eb00004f78001e009000ae009000f4
:103ef000e00f5000e08f58003b003a0010c0b300c4
:103f0000004f7800100020000100200030079800ca
:103f100041079800340037001e019000ae01900068
:103f20003e009000ce009000800f5100818f59001c
:103f3000030031001e4078000004e000230032003e
:103f40001e009000ae0090003e019000ce01900057
:103f500003f90700004f78008e0890005e00900083
:103f60000080400003c3b3009ec0410001487800b8
:103f70005e0090000000e800500798001e029000cc
:103f8000ae0290001e80fb008000eb003e0190001e
:103f90008191b900ce019000809bb9008601780024
:103fa00003014100be0190000018b800010141006a
:103fb000820078000000520081805a0010079800ab
:103fc0002107980010c0b300004f78003e00900019
:103fd000ce009000a200200003002000e0f80700bf
:103fe0003007980041079800de0090001e089000fe
:103ff000808f5000050031003e009000ce00900000
:10400000e00f5000e08f5800c3ff3a00de00900040
:104010001e089000808f5000050031008e0890002f
:104020005e009000008040008040eb000148780076
:104030005e009000004078000080fa00000006005a
:104040000e00fa0040079800510798006207980098
:10405000ce00900011079800007122002007980000
:104060000000eb00300798006e0090000000e000b8
:1040700002003a000040eb003f0037000040eb0038
:10408000004f78001e0090000000e00028003a0079
:1040900010c0b300004f78001000200020079800e7
:1040a000230037009e0090002e009000808f50006b
:1040b000030031001e4078000004e00017003200c9
:1040c0009e0090002e009000000178001100090071
:1040d0008280d800004f7800de0090003e00900003
:1040e0000080400002c3b3009e40410001487800b8
:1040f0003e0090000000e800300798009e80fb0022
:104100002e0090008088b9009e0090000080500032
:104110001007980010c0b300004f7800ae00900068
:10412000d0cc2c000008b8004308de00200798001f
:10413000be0090006e009000808f500003003100a0
:104140002e0090000000e000d6ff3a00be00900074
:104150006e009000808f500005003100de0090005e
:104160003e009000008040008040eb000148780055
:104170003e009000004078000080fa000000060039
:104180001400fa006007980071079800020f980069
:10419000130f98006e019000fe0190001207980026
:1041a0002307980000a02c00a1b923003007980035
:1041b000410798000000eb00500798001e0890008f
:1041c0000000e00002003a000040eb00560037001b
:1041d0000040eb00004f78001e009000ae00900001
:1041e000e00f5000e08f58003b003a0010c0b300d1
:1041f000004f7800100020000100200030079800d8
:1042000041079800340037001e019000ae01900075
:104210003e009000ce009000800f5100818f590029
:10422000030031001e4078000004e000230032004b
:104230003e019000ce0190001e009000ae00900064
:1042400047f80700004f78008e0890005e0090004d
:104250000080400003c3b3009ec0410001487800c5
:104260005e0090000000e800500798001e80fb00f0
:104270008000eb003e0190008191b900ce019000da
:10428000809ab9008401780003014100be019000ca
:104290000018b80001014100820078001e01900062
:1042a000ae01900000005100818059001007980075
:1042b0002107980010c0b300004f78003e00900026
:1042c000ce009000a20020000300200024f8070088
:1042d0003007980041079800de0090001e0890000b
:1042e000808f5000050031003e009000ce0090000d
:1042f000e00f5000e08f5800c3ff3a00de0090004e
:104300001e089000808f5000050031008e0890003c
:104310005e009000008040008040eb000148780083
:104320005e009000004078000080fa000000060067
:104330001400fa006007980071079800020f9800b7
:10434000130f98006e019000fe0190001207980074
:104350002307980000a02c00a1b923003007980083
:10436000410798000000eb00500798001e089000dd
:104370000000e00002003a000e08900066003700de
:104380001e009000ae009000e00f5000e08f58003b
:104390000c003d000e089000d1c2b3000148780027
:1043a0005e0090000000e800500798001e0090009a
:1043b000ae00900060001000e08018001007980028
:1043c000210798000040eb00004f78001e0090008d
:1043d000ae009000e00f5000e08f58003b003a0024
:1043e00010c0b300004f7800100020000100200032
:1043f0003007980041079800340037001e019000f4
:10440000ae0190003e009000ce009000800f510061
:10441000818f5900030031001e4078000004e00045
:10442000230032001e009000ae0090003e0190007c
:10443000ce019000caf70700004f78008e08900068
:104440005e0090000080400003c3b3009ec04100a6
:10445000014878005e0090000000e80050079800d6
:104460001e029000ae0290001e80fb008000eb0058
:104470003e0190008191b900ce019000809bb9006f
:104480008601780003014100be0190000018b800c9
:1044900001014100820078000000520081805a0032
:1044a000100798002107980010c0b300004f780053
:1044b0003e009000ce009000a200200003002000eb
:1044c000a7f707003007980041079800de0090002a
:1044d0001e089000808f5000050031003e009000c3
:1044e000ce009000e00f5000e08f5800c3ff3a006c
:1044f000de0090001e089000808f50000500310003
:104500008e0890005e009000008040008040eb002c
:10451000014878000e0890000080fa0000000600b4
:104520000c00fa0020079800310798004207980015
:10453000530798005e0090000000e0003200320057
:10454000be0090005e009000808f5000020031009d
:10455000de009000310798000000eb00000f7800ab
:104560001a0037002e0090001e0040001040780016
:104570000080fb00100798009e00900000042000bf
:10458000808f5000080036009e009000a00520009b
:10459000808f500004003e009e009000000220002a
:1045a00000806800100798004e0090001e00400038
:1045b0009e00900081407800014878001e00900025
:1045c0000000e000060032001e0fe8003e009000f0
:1045d0009e007800808f5000e2ff39000100370014
:1045e000000000005e0090009e007800808f500068
:1045f000060031004e0090001e0040008040eb009d
:104600000148780001003700000000000080fa0037
:10461000000006000c00fa002007980031079800ff
:1046200042079800530798005e0090000000e000e9
:1046300032003200be0090005e009000808f50007b
:1046400002003100de009000310798000000eb000e
:10465000000f78001a0037002e0090001e00400066
:10466000104078000080fb00100798009e0090002a
:1046700000062000808f5000080036009e00900049
:10468000a0072000808f500004003e009e00900094
:104690000002200000806800100798004e00900083
:1046a0001e0040009e009000814078000148780084
:1046b0001e0090000000e000060032001e0fe8001f
:1046c0003e0090009e007800808f5000e2ff39008d
:1046d00001003700000000005e0090009e0078009e
:1046e000808f5000060031004e0090001e004000f8
:1046f0008040eb0001487800010037000000000016
:104700000080fa00000006000e00fa002007980062
:10471000310798004207980053079800444f9800cb
:104720000000eb00000f78003f0037002e009000e3
:104730001e00400090407800214798004e009000f5
:104740001e00400090407800314798004e4890008d
:104750000004e00018003200ae40900000c6b30034
:1047600080cf500008003600ae409000a0c7b300d4
:1047700080cf500004003e00ae409000f0cdb3006a
:1047800000c0600020479800be40900000c6b30003
:1047900080cf500008003600be409000a0c7b30094
:1047a00080cf500004003e00be409000f0cdb3002a
:1047b00000c06000304798003e4090000004e000d8
:1047c00007003a002e4090000004e00002003a008a
:1047d0000040eb003700370010c0b3003500370051
:1047e0002e4090000004e00002003a0000c0eb0000
:1047f00030003700ae4090003e40900080cf500027
:104800000200310000c0eb002a003700ae409000eb
:104810003e40900080cf50000200360010c0b30030
:10482000240037001e0fe8003e0090009e00780034
:10483000808f5000040031005e0090009e007800e0
:10484000808f5000b9ff3900be0090005e009000dc
:10485000808f5000090036002e0090001e0040009e
:10486000104078000004e00002003a000040eb0035
:104870001000370010c0b3000e003700be009000db
:104880005e009000808f5000090031004e009000c3
:104890001e004000104078000004e00002003a00d2
:1048a0000040eb000300370000c0eb0001003700c0
:1048b0000040eb000080fa00000006002600fa002d
:1048c000881f7800600f9800710f980002679800a9
:1048d00013179800241798000000eb0010079800a9
:1048e0000000200001f02300200798003107980005
:1048f0000040eb00004f780008003700d2cc2c00bd
:10490000c3dc23002e009000be0090003cf60700a0
:1049100020079800310798001e4fe8000e609000b5
:104920009e40780080cf5000f4ff390018c0b300db
:104930006011b8006e089000fe08900098f607001d
:104940000000e000010035000044eb000804e00036
:104950000d0032006e089000fe08900001f0a200e9
:10496000600f9800710f98009e1090001e0090003c
:1049700000804000d1c2b300014878001e009000c2
:104980000000e800100798002e019000be01900082
:104990006e089000fe08900074f50700600f980004
:1049a000710f98006e089000fe0890007ef60700d8
:1049b00020079800310798002e009000be0090005c
:1049c00043f6070060079800710798002e019000d9
:1049d000be0190006e089000fe08900062f507008e
:1049e000400798005107980070004700c30020005e
:1049f000000178006e009000fe0090004cfe070061
:104a00000040eb00004f78000f0037009e00900040
:104a10002e109000808f50000a0031009e109000f0
:104a20001e009000008040009e80fb00f08040004f
:104a3000eec07800014878001e0090000000e800f9
:104a4000100798001e4fe8001e80fb007000400019
:104a50006e4078000004e000ecff3a009e009000f9
:104a60002e109000808f5000080031009e109000a2
:104a70001e00900000804000e1c2b30001487800b1
:104a80001e0090000000e800100798000040eb00b6
:104a9000004f7800270037009e0090002e109000f5
:104aa000808f5000280031000200200003122400f3
:104ab0004e009000de009000d1f5070040079800fe
:104ac000510798004e009000de00900000f60700ad
:104ad00060079800710798006e009000fe0090003b
:104ae0001cf6070020079800310798002e0190005f
:104af000be0190004e009000de0090001af5070005
:104b000040079800510798009e1090001e009000ea
:104b100000804000ee009000814078000143b0002a
:104b2000014878001e0090000000e800100798007f
:104b30001e4fe8000e6090009e40780080cf50002d
:104b4000d5ff390001003700000000009e009000f2
:104b50002e109000808f5000050031009e109000b4
:104b60001e009000008040008040eb00014878006b
:104b70001e1090004f0478000080fa00000006002c
:104b80001a00fa00100f9800210f9800320f9800b9
:104b9000430f98000000eb0010079800ea00470060
:104ba000030009008018eb001e099000ae09900078
:104bb00022079800330798003e0890008040eb00e1
:104bc000014878001e089000ae089000c809de0079
:104bd000480add004801de0002017200f00f2000eb
:104be00001002000800f5100818f59000500360020
:104bf0004e089000e90f500002003e003e08900071
:104c0000670037001e099000ae099000f00f2000e9
:104c100001002000800f5100818f590005003600ef
:104c20004e089000e50f500002003e003e08900044
:104c30005b0037001e099000ae099000f00f2000c5
:104c400001002000800f5100818f590005003e00b7
:104c50004e089000e30f500002003e003e08900016
:104c60004f0037003e08900001c3b30001487800b0
:104c70003e0890000000e80081c7b30001487800ba
:104c80002e0090006f006000400798002e009000fa
:104c9000be0090004c09dd004400de000000710001
:104ca000c408de0020079800310798004e009000ed
:104cb000e90f50000b0036004e0090006a005000d3
:104cc000400798004e0090000040780013c4b300e5
:104cd000834040001e0090006a0040000177780089
:104ce000070037004e0090000040780004c3b30076
:104cf000844040001e0090006a0040000177780068
:104d00001e0090000000e800100798002e009000a0
:104d1000be009000e00f5000e08f5800d8ff3a002e
:104d20001e009000e10f500004003a0000c3b300e1
:104d3000304f98002000200010079800200020002d
:104d4000000f7800090037003e0890001e00400068
:104d50009e0090009e8050008100e800ea804000a4
:104d6000eec07800014878001e0fe8001e00900099
:104d70000080e8009e0f5000f3ff3e004e089000b8
:104d80009e007800808f5000040031003e089000a3
:104d90001e0040008040eb00014878003e08900073
:104da0000080fa00000006000c00fa00400798009e
:104db000510798000040eb00004f78000000eb0026
:104dc000100798006000b80020079800310798008d
:104dd00011003700ce0090001e00900000804000bf
:104de00090407800d0c2b30080cf500007003a0056
:104df00010c0b300004f78001e0090000000e800d3
:104e00001007980000000000340037001e009000da
:104e10000000e800100798009e0090005e009000df
:104e2000808f50002d003100ce0090001e009000b9
:104e30000080400090407800f0c2b30080cf500066
:104e4000e4ff3600ce0090001e009000008040007d
:104e50009040780090c3b30080cf5000ddff3e004b
:104e60001e0037003e009000ea01b9002e009000bd
:104e7000e000b90000014100ae009000a000200059
:104e80000008b80001014100820078002007980066
:104e9000310798002007980031079800ce00900055
:104ea0001e00900000804000104078000080fb0051
:104eb0000003b100cf80de002e019000be01900003
:104ec00002004000838048002007980031079800c6
:104ed0001e0090000000e800100798009e0090005f
:104ee0005e009000808f50000e003100ce009000d8
:104ef0001e0090000080400090407800f0c2b30097
:104f000080cf500007003600ce0090001e009000b9
:104f1000008040009040780090c3b30080cf5000e4
:104f2000d0ff36001e4078000004e000060032008a
:104f30002e009000be00900060001000e08018007d
:104f400020079800310798002e009000be009000c6
:104f50000080fa00000006002000fa00600f9800b0
:104f6000710f98006000b800008fbe0000002000a4
:104f700001f8230020079800310798000000eb009b
:104f8000400798000040eb00204f98000040eb00e5
:104f9000304f98006e08900090407800d0c2b30067
:104fa00080cf500004003a0010c0b300304f98008a
:104fb00010c0b300204f98002e4890000080fb00e6
:104fc000400798000a003700ee0890004e0090005d
:104fd0000080400090407800e0c2b30080cf5000d5
:104fe000080032004e0090000000e80040079800e2
:104ff000ce0090007e089000808f5000f2ff3900b4
:105000000100370000000000ce0090006e08900004
:1050100065ff07006007980071079800ce009000b8
:105020007e089000808f500007003a006e009000cc
:10503000fe009000caf30700008fbe001e0078003b
:105040009e009000540037004e0090000040780011
:105050000040e800204f98002e4890000080fb00a0
:105060004007980022003700ee0890004e009000a4
:105070000080400090407800f0c2b30080cf500024
:105080001f003600ee0890004e00900000804000a7
:105090009040780090c3b30080cf500018003e00cd
:1050a0002e4890000080fb00ce0090000080500051
:1050b0006e099000ce009000810041009140780080
:1050c0007400400001777800d2cc2c00c3dc2300b0
:1050d0002e009000be00900049f4070020079800c1
:1050e000310798004e0090000000e800400798004b
:1050f000ce0090007e089000808f5000daff3900cb
:105100002e4890000080fb00ce0090008080500070
:105110007400470024ff0700000f9800110f98004b
:105120000e0890009e0890008df30700008fbe00cf
:105130002e019000be0190001e0078009e0090009d
:105140002ff40700008fbe006e009000fe0090005c
:1051500083f3070020079800310798002e01900084
:10516000be0190001e0078009e0090007ff30700b3
:10517000008fbe003e4890000004e00004003200b2
:105180001e0078009e00900001f0a200008fbe007b
:105190001e0078009e0090000080fa0000000600cb
:1051a0000c00fa0020079800310798004207980089
:1051b000530798000000eb00100798000900370023
:1051c000ae0090001e00900000804000104078006b
:1051d0000004e000070032001e0090000000e8001c
:1051e000100798009e0090003e009000808f5000b5
:1051f000f3ff39009e0090005e009000808f500009
:1052000002003600de009000110798009e0090001a
:10521000010f7800070037001e0fe9004e009000d4
:105220001e004000ae0090009e804000914078003b
:10523000014878001e0078000000e000f6ff3a0008
:105240001e0090000080fa00000006000a00fa002c
:10525000100798002107980032079800430798002c
:105260000000eb00000f7800070037003e009000c0
:105270001e0040009e0090009e80400091407800fb
:10528000014878001e0fe8002e0090009e00780074
:10529000808f5000090031004e0090009e00780081
:1052a000808f5000050031001e0090001e0040005d
:1052b000104078000004e000ecff3a001e00780087
:1052c0000080fa00000006001000fa002007980095
:1052d0003107980042079800530798006407980028
:1052e000750798000000eb00000f7800ce009000da
:1052f0006e009000808f500077003a000000eb00b5
:105300001007980009003700ae0090001e009000c2
:1053100000804000104078000004e00007003200e8
:105320001e0090000000e800100798009e0090000a
:105330003e009000808f5000f3ff39009e009000e7
:105340007e009000808f50004b0031000000eb0089
:10535000000f7800060037004e0090001e0040004d
:10536000104078000004e000050032001e0fe80045
:105370005e0090009e007800808f5000f6ff39009c
:10538000fe0090001e009000008050009e0f500014
:1053900003003100fe0090001e009000008f5000be
:1053a0001e0090001e004000500798009e007800ec
:1053b000110798000e0037001e0090000000e90061
:1053c000100798005e0090000000e9005007980068
:1053d000ee0090005e009000008040004e019000c2
:1053e0009e009000810041009140780001487800c3
:1053f0001e0090000000e000efff3a000000eb000c
:10540000100798000b003700ee0090001e0090007f
:10541000008040002e0190009e009000810041001d
:1054200091407800014878001e0090000000e800dc
:10543000100798009e0090003e009000808f500062
:105440000a0031009e0090007e009000808f500086
:1054500006003100ae0090001e0090000080400069
:10546000104078000004e000e7ff3a001e009000c2
:105470001e0f4000570037000000eb00000f7800bf
:10548000070037006e0090001e004000ae00900044
:105490009e80400091407800014878001e0fe8008f
:1054a0003e0090009e007800808f5000490031003f
:1054b0007e0090009e007800808f500045003100f3
:1054c0002e0090001e004000104078000004e00014
:1054d000ecff3a003f0037000000eb00000f7800bf
:1054e000070037006e0090001e004000ae009000e4
:1054f0009e80400091407800014878001e0fe8002f
:105500003e0090009e007800808f5000090031001e
:105510007e0090009e007800808f500005003100d2
:105520002e0090001e004000104078000004e000b3
:10553000ecff3a007e0090009e007800808f5000c3
:10554000240031006e0090001e00400020079800eb
:105550007e0090001e005000300798000000eb0015
:10556000100798000b003700ae0090001e0090005e
:10557000008040004e0190009e009000810041009c
:1055800091407800014878001e0090000000e8007b
:10559000100798009e0090005e009000808f5000e1
:1055a0000a0031009e0090003e009000808f500065
:1055b00006003100ce0090001e00900000804000e8
:1055c000104078000004e000e7ff3a001e00900061
:1055d0001e0f40007e0090009e007800808f5000db
:1055e000040031006e0090001e0040008040eb007f
:1055f000014878000080fa00000006000a00fa0066
:105600001007980021079800320798004307980078
:105610000000eb00000f7800070037003e0090000c
:105620001e0040009e0090009e8040009140780047
:10563000014878001e0fe8002e0090009e007800c0
:10564000808f5000090031004e0090009e007800cd
:10565000808f5000050031001e0090001e004000a9
:10566000104078000004e000ecff3a004e0090008b
